:100000000C945A000C9464000C9464000C946400EA
:100010000C9464000C9464000C9464000C946400D0
:100020000C9464000C9464000C9464000C946400C0
:100030000C9464000C9464000C9464000C946400B0
:100040000C9464000C9464000C9464000C946400A0
:100050000C9464000C9464000C9464000C94640090
:100060000C9464000C9464000C9464000C94640080
:100070000C9464000C9464000C9464000C94640070
:100080000C9464000C9464000C9464000C94640060
:100090000C9464000C9464000C9464000C94640050
:1000A0000C9464000C9464000C9464000C94640040
:1000B0000C94640011241FBECFEFD8E0DEBFCDBF8B
:1000C0000E9466000C9483000C940000259A2D98E1
:1000D000ECE7F0E0808181668083EAE7F0E08081F0
:1000E00087688083ABE7B0E08C91887F8C938081B8
:1000F00080648083E9E7F0E08081882314F02D9A02
:0A010000FBCF2D98F9CFF894FFCF44
:00000001FF
