S014000054696D6572706C75734144432E7372656383
S11300000C945A000C9477000C9477000C947700AD
S11300100C9477000C9477000C9477000C94770080
S11300200C9477000C9477000C9477000C94770070
S11300300C9477000C94F4000C9477000C947700E3
S11300400C9477000C9477000C9477000C94770050
S11300500C9477000C9477000C9477000C94770040
S11300600C9477000C9477000C9477000C94770030
S11300700C9477000C9477000C9477000C94770020
S11300800C9477000C9477000C9477000C94770010
S11300900C9477000C9477000C9477000C94770000
S11300A00C9477000C9477000C9477000C947700F0
S11300B00C94770011241FBECFEFD8E0DEBFCDBF74
S11300C011E0A0E0B1E0EAECF3E002C005900D928B
S11300D0A431B107D9F721E0A4E1B1E001C01D9238
S11300E0A432B207E1F70E94E9000C94E3010C94F6
S11300F00000E0ECF0E0908195FFFDCF8093C60016
S11301000895CF93DF93EC018881882331F0219601
S11301100E94790089918111FBCFDF91CF910895DD
S1130120E1E8F0E080818460808380818D7F80833A
S113013080818E7F8083EFE6F0E080818160808320
S11301408EEE95E890938500809384000895E1EC09
S1130150F0E0808188618083A2ECB0E08C918660BD
S11301608C938C91877C8C931092C50087E6809346
S1130170C4008081806880830895259A2D9808950D
S1130180ECE7F0E080818064808380818F778083D6
S11301908081877F808380818B7F808380818D7F36
S11301A08083808181608083EAE7F0E080818068D9
S11301B08083808180648083808180628083808169
S11301C08460808380818260808380818160808379
S11301D00895F8940E94C0000E94A7000E94900015
S11301E00E94BD007894FFCF1F920F920FB60F921A
S11301F011242F933F934F935F936F937F938F9328
S11302009F93AF93BF93EF93FF9380911C018A3028
S113021009F08EC010921C018091780090917900B1
S1130220909323018093220180E091E00E94810059
S113023080912201909123014AE06DE171E00E94D6
S1130240AE018DE191E00E94810081E191E00E9484
S1130250810080911901813009F06AC080911801F0
S1130260813059F5809114019091150190931701F3
S1130270809316018091220190912301909315019E
S11302808093140110921801843C910520F081E0C0
S113029080931B014DC09C01245B31092031310541
S11302A020F482E080931B0143C0843B910508F055
S11302B03FC083E080931B013BC080911401909167
S11302C0150190931701809316018091220190915A
S11302D023019093150180931401843C910550F0FF
S11302E080911B01813021F181E080931A01809378
S11302F01B011EC09C01245B31092031310558F4D7
S113030080911B018230A1F081E080931A0182E088
S113031080931B010DC0843B910550F480911B0117
S1130320833031F081E080931A0183E080931B01D4
S113033080911C018F5F80931C01FF91EF91BF910D
S1130340AF919F918F917F916F915F914F913F9169
S11303502F910F900FBE0F901F901895BB274A3016
S113036031F4992322F4BDE2909581959F4F0C942A
S1130370BA01BB27FB015527AA27880F991FAA1F7B
S1130380A41710F0A41B83955051B9F7A05DAA33AC
S113039008F0A95DA193009779F7B111B193119277
S11303A0CB010C94D301DC01FC01672F71917723FD
S11303B0E1F7329704C07C916D9370836291AE171C
S10D03C0BF07C8F30895F894FFCFB7
S11303CA4C6579656E646F2043616E616C203120DF
S10703DA000D0A0004
S9030000FC
