S0150000707275656261735F74696D65722E737265639D
S11300000C945A000C9477000C9477000C947700AD
S11300100C9477000C9477000C9477000C94770080
S11300200C9477000C9477000C9477000C94770070
S11300300C9477000C94C3000C9477000C94770014
S11300400C9477000C9477000C9477000C94770050
S11300500C9477000C9477000C9477000C94770040
S11300600C9477000C9477000C9477000C94770030
S11300700C9477000C9477000C9477000C94770020
S11300800C9477000C9477000C9477000C94770010
S11300900C9477000C9477000C9477000C94770000
S11300A00C9477000C9477000C9477000C947700F0
S11300B00C94770011241FBECFEFD8E0DEBFCDBF74
S11300C011E0A0E0B1E0E4E0F2E002C005900D929E
S11300D0AA32B107D9F721E0AAE2B1E001C01D922A
S11300E0AB32B207E1F70E94BC000C9400010C94FF
S11300F00000E0ECF0E0908195FFFDCF8093C60016
S11301000895CF93DF93EC018881882331F0219601
S11301100E94790089918111FBCFDF91CF910895DD
S1130120F894E1E8F0E0808185608083EFE6F0E018
S11301308081816080838CE791EE90938500809329
S1130140840078940895E1ECF0E0808188618083F4
S1130150A2ECB0E08C9186608C938C91877C8C931C
S11301601092C50087E68093C400808180688083F4
S11301700895259A2D9808950E94A3000E94900046
S11301800E94B900FFCF1F920F920FB60F92112455
S11301902F933F934F935F936F937F938F939F938B
S11301A0AF93BF93EF93FF9380912A01843021F49E
S11301B080E091E00E94810080912A01863051F410
S11301C010922A0195B180E2892785B987E191E0EF
S11301D00E94810080912A018F5F80932A01FF9100
S11301E0EF91BF91AF919F918F917F916F915F91AB
S11301F04F913F912F910F900FBE0F901F90189524
S1070200F894FFCF9C
S11302044669726D77617265205375707261204E10
S1130214617661730D0A00736F79206C61206D65DA
S10D0224726120746F730D0A00006C
S9030000FC
