:100000000C945A000C9477000C9477000C947700B1
:100010000C9477000C9477000C9477000C94770084
:100020000C9477000C9477000C9477000C94770074
:100030000C9477000C9477000C9477000C94770064
:100040000C9477000C9477000C9477000C94770054
:100050000C9477000C94BE000C9477000C947700FD
:100060000C9477000C9477000C9477000C94770034
:100070000C9477000C9477000C9477000C94770024
:100080000C9477000C9477000C9477000C94770014
:100090000C9477000C9477000C9477000C94770004
:1000A0000C9477000C9477000C9477000C947700F4
:1000B0000C94770011241FBECFEFD8E0DEBFCDBF78
:1000C00011E0A0E0B1E0EEE6F2E002C005900D9292
:1000D000A431B107D9F721E0A4E1B1E001C01D923C
:1000E000A931B207E1F70E94A0000C9435010C94ED
:1000F0000000ECE7F0E0808180688083808181608F
:100100008083EAE7F0E08081886E80838081876069
:1001100080830895E1ECF0E0808188618083A2EC27
:10012000B0E08C9186608C938C91877C8C9310923C
:10013000C50087E68093C40080818068808308952D
:10014000F8940E948A000E9479007894FFCFE0EC36
:10015000F0E0908195FFFDCF8093C6000895CF9386
:10016000DF93EC018881882331F021960E94A7005B
:1001700089918111FBCFDF91CF9108951F920F924A
:100180000FB60F9211242F933F934F935F936F936A
:100190007F938F939F93AF93BF93CF93DF93EF930F
:1001A000FF93C0917800D091790080E091E00E94A7
:1001B000AF004AE064E171E0CE010E94000184E1F9
:1001C00091E00E94AF0081E191E00E94AF008FE3D7
:1001D0009CE90197F1F700C00000FF91EF91DF91DA
:1001E000CF91BF91AF919F918F917F916F915F91CF
:1001F0004F913F912F910F900FBE0F901F90189528
:10020000BB274A3031F4992322F4BDE290958195C1
:100210009F4F0C940C01BB27FB015527AA27880F81
:10022000991FAA1FA41710F0A41B83955051B9F76A
:10023000A05DAA3308F0A95DA193009779F7B111E9
:10024000B1931192CB010C942501DC01FC01672FC5
:1002500071917723E1F7329704C07C916D9370839D
:0E0260006291AE17BF07C8F30895F894FFCF60
:10026E004C6579656E646F2043616E616C20312040
:04027E00000D0A0065
:00000001FF
